:020000040800F2
:1000000000000220D5EE00088901000895010008D3
:100010009D010008A5010008AD01000800000000D6
:10002000000000000000000000000000356600082D
:10003000B5010008000000002D6800087D68000878
:1000400021EF000821EF000821EF000821EF000850
:1000500021EF000821EF0008C9400008D541000841
:10006000E14200082D43000821EF000821EF0008BD
:1000700021EF000821EF000821EF000821EF000820
:1000800021EF000821EF000821EF000821EF000810
:1000900021EF000821EF000821EF000821EF000800
:1000A00021EF000821EF000821EF000821EF0008F0
:1000B00021EF0008795B000821EF000821EF00081C
:1000C00021EF000821EF000821EF000821EF0008D0
:1000D00021EF000821EF000821EF00084947000840
:1000E00021EF000821EF000821EF000821EF0008B0
:1000F00021EF000821EF000821EF000821EF0008A0
:1001000021EF000821EF000821EF000821EF00088F
:1001100021EF000821EF000821EF000821EF00087F
:1001200021EF000821EF000821EF000821EF00086F
:1001300021EF000821EF000821EF000821EF00085F
:1001400021EF000821EF000821EF000821EF00084F
:1001500021EF000821EF000821EF00088548000882
:1001600021EF000821EF000821EF000821EF00082F
:1001700021EF000821EF000821EF000821EF00081F
:0801800021EF000821EF000847
:1001880080B400AFBD4680BC704700BF80B400AFEC
:10019800FEE700BF80B400AFFEE700BF80B400AF49
:1001A800FEE700BF80B400AFFEE700BF80B400AF39
:1001B800BD4680BC704700BF80B500AF4FF46053A8
:1001C800C4F202034FF46052C4F20202126842F011
:1001D80001021A604FF46053C4F202034FF00002A8
:1001E8009A604FF46053C4F202034FF46052C4F2B1
:1001F8000202126822F0847222F480321A604FF4EC
:100208006053C4F2020343F21002C2F200425A6081
:100218004FF46053C4F202034FF46052C4F2020276
:10022800126822F480221A604FF46053C4F2020369
:100238004FF00002DA6000F0CFF84FF46D43CEF2D1
:1002480000034FF000629A604FF46D43CEF2000352
:100258004FF46D42CEF20002D2F8882042F47002C8
:10026800C3F8882080BD00BF80B487B000AF4FF0CE
:1002780000033B614FF000037B614FF00203FB601A
:100288004FF00003BB604FF002037B604FF46053F4
:10029800C4F202039B6803F00C033B613B69042B27
:1002A8000DD0082B15D0002B69D140F20003C2F203
:1002B80000034FF41052C0F2F4021A6069E040F2F1
:1002C8000003C2F200034FF49052C0F27A021A609F
:1002D8005FE04FF46053C4F202035B6803F48003E9
:1002E8004FEA9353BB604FF46053C4F202035B6858
:1002F80003F03F037B60BB68002B14D04FF490538E
:10030800C0F27A037A68B3FBF2F24FF46053C4F296
:100318000203596847F6C0730B404FEA931303FB77
:1003280002F37B6113E04FF41053C0F2F4037A68D0
:10033800B3FBF2F24FF46053C4F20203596847F674
:10034800C0730B404FEA931303FB02F37B614FF436
:100358006053C4F202035B6803F440334FEA13436B
:1003680003F101034FEA4303FB607A69FB68B2FBC0
:10037800F3F240F20003C2F200031A6009E040F20F
:100388000003C2F200034FF41052C0F2F4021A60E4
:1003980000BF4FF46053C4F202039B6803F0F003FC
:1003A8004FEA131240F20403C2F200039B5CDBB273
:1003B8003B6140F20003C2F200031A683B6922FA6B
:1003C80003F240F20003C2F200031A6007F11C07AF
:1003D800BD4680BC704700BF80B483B000AF4FF00B
:1003E80000037B604FF000033B604FF46053C4F29E
:1003F80002034FF46052C4F20202126842F48032DF
:100408001A604FF46053C4F202031B6803F400330C
:100418003B607B6803F101037B603B68002B03D1E1
:100428007B68B3F5A06FECD14FF46053C4F20203BC
:100438001B6803F40033002B03D04FF001033B602B
:1004480002E04FF000033B603B68012B40F08280E4
:100458004FF46053C4F202034FF46052C4F2020234
:10046800126C42F080521A644FF4E043C4F2000365
:100478004FF4E042C4F20002126842F480421A606B
:100488004FF46053C4F202034FF46052C4F2020204
:1004980092689A604FF46053C4F202034FF46052BA
:1004A800C4F20202926842F400429A604FF4605328
:1004B800C4F202034FF46052C4F20202926842F49A
:1004C800A0529A604FF46053C4F2020345F2084206
:1004D800C0F240725A604FF46053C4F202034FF402
:1004E8006052C4F20202126842F080721A6000BFC1
:1004F8004FF46053C4F202031B6803F00073002B2F
:10050800F6D04FF47053C4F2020340F205621A6049
:100518004FF46053C4F202034FF46052C4F2020273
:10052800926822F003029A604FF46053C4F2020307
:100538004FF46052C4F20202926842F002029A60DA
:1005480000BF4FF46053C4F202039B6803F00C032E
:10055800082BF6D14FF46053C4F202034FF46052F3
:10056800C4F20202926822F400029A604FF46053C7
:10057800C4F202034FF44052C5F20002C3F88420CB
:100588004FF46053C4F202034FF46052C4F2020203
:10059800126842F080621A6000BF4FF46053C4F2E0
:1005A80002031B6803F00063002BF6D007F10C0769
:1005B800BD4680BC704700BF80B584B000AF78608E
:1005C8004FF00003FB604FF0000007F0EDF907F172
:1005D8001007BD4680BD00BF80B582B000AF4FF0A8
:1005E8000C004FF001010BF099FD4FF470433B6094
:1005F8004FF001033B714FF00003BB714FF0030351
:100608007B714FF00003FB713B464FF44060C4F22E
:10061800020019460BF00AF84FF44060C4F20200D9
:100628004FF480514FF000020BF056F94FF4406040
:10063800C4F202004FF400514FF000020BF04CF9E5
:100648004FF44060C4F202004FF480414FF00002C2
:100658000BF042F94FF44060C4F202004FF400413D
:100668004FF000020BF038F907F10807BD4680BDCE
:1006780080B400AFBD4680BC704700BF80B500AFF6
:1006880006F0C2F8FEE700BF80B400AFBD4680BCEC
:10069800704700BF80B582B000AF7860396006F05F
:1006A800B3F8FEE780B582B000AF786018E07B68E9
:1006B8001B787A6802F101027A604FF49040C4F224
:1006C800000019460EF050F900BF4FF49040C4F2F4
:1006D80000004FF040010EF043FB0346002BF4D01E
:1006E8007B681B78002BE2D107F10807BD4680BD67
:1006F80080B582B000AF0346FB714FF40050C4F2DE
:10070800010009F015FE00BF4FF40050C4F20100CB
:100718004FF002010AF0EEF80346002BF4D04FF434
:100728000050C4F2010009F0A9FE0346184607F17B
:100738000807BD4680BD00BF80B58CB000AF4FF044
:10074800000387F82B304FF000033B774FF000038E
:100758003B764CF250337B624FF000033B624FF420
:10076800407009F08BFA4FF4165003F0E5FEFFF7DE
:1007780033FF00F059FE00F0AFFA05F0B7FD05F0C1
:1007880061FE05F091FE4FF40050C4F2010009F03B
:10079800CFFD42F6FC63C2F201031B881BB207F1CE
:1007A8001C02104640F2C001C0F601011A460EF0C4
:1007B80001FC07F11C031846FFF774FF42F6FC63BF
:1007C800C2F201035B881BB207F11802104640F21F
:1007D800CC01C0F601011A460EF0ECFB07F1180334
:1007E8001846FFF75FFF4FF00003FB6203E0FB6A68
:1007F80003F10103FB62FA6A4CF2BF63C0F22D03F6
:100808009A42F4DDC5E700BF80B485B000AFF86058
:10081800B9607A604FF0FF33184607F11407BD46F8
:1008280080BC704780B584B000AFF860B9607A606A
:100838000EF074FB03464FF016021A604FF0FF33B8
:10084800184607F11007BD4680BD00BF80B485B0CB
:1008580000AFF860B9607A604FF00003184607F1FE
:100868001407BD4680BC704780B586B000AFF860FD
:10087800B9607A604FF000037B6119E000BF4FF464
:100888009043C4F200031B889BB203F04003002B83
:10089800F5D07B69BA68D3181B784FF49040C4F23E
:1008A800000019460EF060F87B6903F101037B61D3
:1008B8007A697B689A42E1DB7B68184607F118077A
:1008C800BD4680BD80B483B000AF78604FF00003B0
:1008D800184607F10C07BD4680BC704780B584B048
:1008E80000AF786040F2F803C2F200031B68002BE7
:1008F80008D140F2F803C2F200034DF25012C2F2DE
:1009080001021A6040F2F803C2F200031B68FB60A0
:1009180040F2F803C2F200031A687B68D2186B46EB
:100928009A4208D90EF0FAFA03464FF00C021A6000
:100938004FF0FF330CE040F2F803C2F200031A68EC
:100948007B68D21840F2F803C2F200031A60FB6811
:10095800184607F11007BD4680BD00BF80B582B0BC
:1009680000AF7860396038684FF000014FF03C0202
:1009780003F0F6FF3B684FF400525A604FF0000353
:10098800184607F10807BD4680BD00BF80B483B094
:1009980000AF78604FF00103184607F10C07BD4619
:1009A80080BC704780B582B000AF786039600EF0C7
:1009B800B5FA03464FF016021A604FF0FF33184697
:1009C80007F10807BD4680BD80B400AF4FF00103B2
:1009D8001846BD4680BC704780B487B000AFF86049
:1009E80087ED020A7960D7ED037AF8EEE77A97ED9A
:1009F800027AC7EE277AC7ED047A4FF000037B61CD
:100A080019E07B694FEA83037A68D3187A694FEA59
:100A1800420207EE902AB8EEE77AD7ED047A27EE7D
:100A2800277AD7ED027A77EE677AC3ED007A7B6989
:100A380003F101037B617A69FB689A42E1DB07F104
:100A48001C07BD4680BC704780B487B000AFF86013
:100A580087ED020A79604FF000037B610AE07B6949
:100A68004FEA83037A68D318BA681A607B6903F17E
:100A780001037B617A69FB689A42F0DB07F11C0786
:100A8800BD4680BC704700BFB0B489B000AFF86005
:100A9800B96087ED010A3A60B96801F1FF337B61FB
:100AA800084602464FF000034FEAD2604FEA43156A
:100AB80005434FEA42144FF00003FB612FE0D7EDE6
:100AC800037AF8EEE77A97ED017AC7EE277AC7ED51
:100AD800047A4FF00003BB6119E00B46FA6902FB88
:100AE80003F34FEA83033A68D218D7ED077AB8EED2
:100AF800E77AD7ED047A67EE277ABB694FEA830372
:100B0800D318C3ED007ABB6903F10103BB61BA696D
:100B1800BB689A42E1DBFB6903F10103FB61FA69F7
:100B2800FB689A42CBDB07F12407BD46B0BC70478F
:100B380080B487B000AFF860B9607A604FF0000306
:100B48007B610FE07B694FEA83037A68D3187A697F
:100B58004FEA8202B9688A1812681A607B6903F141
:100B680001037B617A69FB689A42EBDB07F11C079A
:100B7800BD4680BC704700BF2DE9F00388B000AFC8
:100B8800F860B9607A603B60B96801F1FF337B6156
:100B9800084602464FF000034FEAD2604FEA431975
:100BA80040EA09094FEA4218B86800F1FF333B618F
:100BB800064632464FF000034FEAD2664FEA431525
:100BC80035434FEA42144FF00003FB6129E04FF030
:100BD8000003BB611DE00346FA6902FB03F34FEA19
:100BE80083033A68D4180B46FA6902FB03F34FEA09
:100BF80083037A68D218BB694FEA8303D3181A684B
:100C0800BB694FEA8303E3181A60BB6903F1010368
:100C1800BB61BA69BB689A42DDDBFB6903F101037A
:100C2800FB61FA69FB689A42D1DB07F12007BD46F0
:100C3800BDE8F003704700BF80B483B000AF87ED14
:100C4800010AC7ED000A97ED017ADFED0B7A27EE6E
:100C5800277AD7ED006ADFED097A66EEA77A37EED4
:100C6800277ADFED077AC7EE277AB0EE670A07F131
:100C78000C07BD4680BC70470000104100007A4454
:100C880000407C4480B485B000AF87ED030AC7ED0F
:100C9800020A87ED011A97ED037ADFED0D7A27EE48
:100CA800277AD7ED017A37EE677AD7ED026ADFED5A
:100CB800097A66EEA77A37EE677ADFED057AC7EE2E
:100CC800277AB0EE670A07F11407BD4680BC704763
:100CD8000000C8410000E04080B59CB000AF07F1BB
:100CE8005803184609F022F907F14803184609F095
:100CF80071F94FF480704FF001010BF0B7FA4FF023
:100D08000400C0F240004FF001010BF007FA07F1B0
:100D1800400318460AF02CFD4FF003033B644FF0E4
:100D2800030387F844304FF0000387F8473007F192
:100D380040034FF40060C4F2020019460AF076FC42
:100D48004FF00003BB644FF48033FB644FF00003A3
:100D58003B6507F14803184609F00EF94FF0000308
:100D6800BB664FF00003BB654FF0010387F85D30A9
:100D78004FF000037B664FF000033B664FF0020321
:100D880087F86C304FF0010387F85C3007F158039F
:100D98004FF40050C4F20100194609F06BF846F20E
:100DA8007040C4F2020009F021FE07F1040318465E
:100DB80009F096FF4FF000037B6042F24C03C4F247
:100DC8000103BB604FF400633B6242F6FC63C2F26E
:100DD8000103FB604FF000033B614FF400537B625B
:100DE8004FF48063FB614FF00003BB614FF48073E5
:100DF800BB624FF40033FB624FF002037B614FF09C
:100E080000033B634FF000037B634FF00003BB63B9
:100E18004FF00003FB6307F1040346F27040C4F28D
:100E28000200194609F004FF46F27040C4F20200BD
:100E38004FF010014FF001020AF012F946F270402B
:100E4800C4F202004FF0010109F090FF4FF4005086
:100E5800C4F201004FF00A014FF001024FF00603FF
:100E680009F088F94FF40050C4F201004FF00B016B
:100E78004FF002024FF0060309F07CF94FF40050DE
:100E8800C4F201004FF0010109F02EFB4FF40050AD
:100E9800C4F201004FF0010109F00AFB4FF40050C1
:100EA800C4F201004FF0010109F0AEF807F1700734
:100EB800BD4680BD80B58CB000AF4FF001004FF04B
:100EC80001010BF02BF94FF420433B624FF0020372
:100ED80087F824304FF0000387F826304FF00303DB
:100EE80087F825304FF0010387F8273007F12003F2
:100EF8004FF44060C4F2020019460AF097FB4FF421
:100F08004060C4F202004FF00D014FF002020AF0F7
:100F18001BFD4FF44060C4F202004FF00F014FF088
:100F280002020AF011FD4FF004004FF001010BF02E
:100F380073F94FF0F903FB624FF0FF03BB62BB6A22
:100F4800BB61FB6A9BB2BB824FF00003BB834FF0CF
:100F58000003FB8207F114034FF40060C4F20000A1
:100F680019460BF027FD4FF060033B804FF001035B
:100F78007B804FF00003BB604FF00003BB813B4612
:100F88004FF40060C4F2000019460BF047FF4FF41D
:100F98000060C4F200004FF008010CF029FA3B464B
:100FA8004FF40060C4F2000019460CF05BF84FF4EF
:100FB8000060C4F200004FF008010CF055FA4FF43D
:100FC8000060C4F200004FF001010BF089FE07F148
:100FD8003007BD4680BD00BF80B582B000AF4FF07E
:100FE80008004FF001010BF099F84FF4A0433B6063
:100FF8004FF001033B714FF00003BB714FF0030347
:101008007B714FF00003FB713B464FF44060C4F224
:10101800020019460AF00AFB07F10807BD4680BD21
:1010280080B584B000AFF86087ED020AC7ED010A09
:1010380087ED001AFB6803F19C034FF006009FED53
:10104800640A1946FFF700FD40F22403C2F20003C8
:10105800D3ED007AFB6803F1A8034FF003004FF0CB
:101068000601B0EE670A1A46FFF70EFD40F22403A8
:10107800C2F2000393ED007ADFED567AC7EE277AC5
:10108800FB6803F59C734FF00600B0EE670A19463B
:10109800FFF7DAFCFB6803F5B4734FF006009FED29
:1010A8004E0A1946FFF798FCFB6803F5B472FB6813
:1010B80003F5FC734FF0060011461A46FFF738FD9A
:1010C800FB6803F59C72FB6803F5F0734FF00600AC
:1010D80011461A46FFF72CFDFB6803F1A802FB68CE
:1010E80003F5CC734FF003004FF00601FFF744FD02
:1010F800FB684DF20A72C3F623421A60FB68BA68AD
:101108005A60FB687A689A60FB683A68DA60FB683C
:10111800BA681A61FB687A685A61FB683A689A612A
:10112800FB684FF00002DA61FB684FF000021A62B8
:10113800FB684FF000025A62FB684FF000029A62A7
:10114800FB684FF00002DA62FB684FF000029A6415
:10115800FB684FF00002DA64FB684FF000025A6542
:10116800FB684FF000029A65FB684FF00002DA65F1
:10117800FB684FF000021A66FB684FF000021A671E
:10118800FB684FF000025A67FB684FF000029A674D
:10119800FB684FF00002DA67FB684FF00002C3F803
:1011A8009820FB684FF00002C3F89420FB684FF0CA
:1011B8000002C4F2FA42C3F83422FB684FF400423A
:1011C800C4F23B62C3F8382207F11007BD4680BD60
:1011D800000000000000C0400000003F80B483B061
:1011E80000AF78607B684FF00002C3F810227B687C
:1011F8004FF00002C3F814227B684FF00002C3F8D6
:1012080018227B684FF00002DA677B684FF0000213
:101218001A677B684FF000025A677B684FF000023C
:10122800C3F898207B684FF00002DA647B684FF0BF
:1012380000025A627B684FF000029A627B684FF0A6
:101248000002DA627B684FF000029A657B684FF013
:101258000002DA657B684FF000021A6607F10C0796
:10126800BD4680BC704700BF80B582B000AF4FF06C
:1012780001004FF001010AF051FF4FF00F033B60EE
:101288004FF000033B714FF003037B714FF00103F4
:10129800FB713B464FF00000C4F2020019460AF009
:1012A800C5F907F10807BD4680BD00BF80B586B007
:1012B80000AF4FF480404FF001010AF0D7FF4FF024
:1012C80000004FF0000108F043FC4FF00103BB6041
:1012D8004FF000033B734FF010037B734FF0010393
:1012E800BB7307F10803184609F0AEFF4FF0010081
:1012F8000AF0D0F84FF006033B714FF003037B71FF
:101308004FF00303BB714FF00103FB7107F10403B6
:10131800184608F0C7FC4FF000004FF0010108F034
:1013280017FC4FF00203BB604FF000033B734FF014
:1013380010037B734FF00103BB7307F108031846D2
:1013480009F082FF4FF002000AF0A4F84FF00703FB
:101358003B714FF003037B714FF00303BB714FF0F8
:101368000103FB7107F10403184608F09BFC4FF0DA
:1013780000004FF0020108F0EBFB4FF00403BB60E4
:101388004FF000033B734FF010037B734FF00103E2
:10139800BB7307F10803184609F056FF4FF0040025
:1013A8000AF078F84FF008033B714FF003037B71A4
:1013B8004FF00303BB714FF00103FB7107F1040306
:1013C800184608F06FFC4FF000004FF0030108F0DA
:1013D800BFFB4FF00803BB604FF000033B734FF0B7
:1013E80010037B734FF00103BB7307F10803184622
:1013F80009F02AFF4FF008000AF04CF84FF00903F3
:101408003B714FF003037B714FF00303BB714FF047
:101418000103FB7107F10403184608F043FC07F1C8
:101428001807BD4680BD00BF90B583B002AFFFF777
:1014380041FDFFF7D1FDFFF717FFFFF737FF03F077
:1014480087FD44F2EC60C2F201009FED710ADFED06
:10145800700A9FED701AFFF7E3FD4BF24070C2F27D
:1014680001009FED6B0ADFED6A0A9FED6A1AFFF72C
:10147800D7FD47F65820C2F201009FED650ADFED5F
:10148800640A9FED641AFFF7CBFD45F2E840C2F20B
:1014980001009FED5F0ADFED5E0A9FED5E1AFFF720
:1014A800BFFD40F2EE209FED5B0A43F63431C2F2F5
:1014B8000101FFF7C9FA40F2EE209FED560A47F600
:1014C8009C41C2F20101FFF7BFFA40F2EE209FED06
:1014D800510A45F23071C2F20101FFF7B5FA40F244
:1014E800EE209FED4C0A4AF68831C2F20101FFF75F
:1014F800ABFA40F2EE209FED470A46F6A061C2F231
:101508000101FFF7A1FA40F2EE209FED420A44F6EE
:101518003011C2F20101FFF797FA40F2EE209FED79
:101528003D0A4BF68411C2F20101FFF78DFA40F231
:10153800EE209FED380A46F2E821C2F20101FFF7DA
:1015480083FA40F2EE209FED330A49F21041C2F2CD
:101558000101FFF779FA40F2EE209FED2E0A42F6DC
:101568007C71C2F20101FFF76FFA40F2EE209FEDA5
:10157800290A4CF24451C2F20101FFF765FA40F220
:10158800EE209FED240A48F65801C2F20101FFF748
:101598005BFA40F2EE209FED1F0A49F6C871C2F2CD
:1015A8000101FFF751FA40F21013C2F200034FF0A5
:1015B80000021A6041F22163C0F60003009340F272
:1015C800D800C0F601004FF01E014FF001024FF0A5
:1015D800010307F095FD024642F67873C2F2010353
:1015E8001A6042F67873C2F201031C6806F00AFE1C
:1015F80003464FF00002009220464FF000011A46C1
:101608004FF0000307F0B4FD07F10407BD4690BD95
:101618000AD7233C0000000080B485B000AF40F238
:101628002013C2F200031B78002B00F0978040F2D1
:101638002013C2F200031B78012B20D140F228139B
:10164800C2F200031A6840F65B539A4208DC40F283
:101658002413C2F200031A6840F65C539A427DDDF7
:1016680040F22013C2F200034FF005021A7040F254
:101678000C13C2F200034FF001021A606EE040F250
:101688002013C2F200031B78022B20D140F228134A
:10169800C2F200031A6840F65B539A4208DC40F233
:1016A8002413C2F200031A6840F65B539A4255DDD0
:1016B80040F22013C2F200034FF005021A7040F204
:1016C8000C13C2F200034FF002021A6046E040F227
:1016D8002013C2F200031B78032B1CD140F22813FD
:1016E800C2F200031B68952B38DD40F22413C2F2C6
:1016F80000031B68952B31DD40F22013C2F2000372
:101708004FF000021A7040F20C13C2F200034FF0BF
:1017180003021A6022E040F22013C2F200031B7891
:10172800042B1BD140F22813C2F200031B68952B2F
:1017380014DD40F22413C2F200031B68952B0DDD63
:1017480040F22013C2F200034FF000021A7040F278
:101758000C13C2F200034FF004021A6007F11407D9
:10176800BD4680BC704700BF80B483B000AF7860CE
:101778007B685A6E7B68DA657B689A6E7B681A6646
:101788007B68DA6E7B689A6507F10C07BD4680BCFA
:10179800704700BF80B582B000AF78607B68D3ED3A
:1017A8008D7AFDEEE77A40F22003C2F20003C3ED22
:1017B800007A40F22003C2F200031A6840F2F313E1
:1017C8009A420EDC40F22003C2F200031A686FF45A
:1017D800F9739A4205DB7B684FF00102C3F83C229B
:1017E8001FE040F22003C2F200031B68B3F57A7FC2
:1017F80017DD40F22003C2F200031B6813F57A7F5D
:101808000FDA7B684FF00002C3F83C2207F10403AB
:1018180018469FED060ADFED050A9FED051AFFF74A
:10182800FFFB07F10807BD4680BD00BF0AD7233C70
:101838000000000080B400AF40F22413C2F200039D
:101848004FF000021A6040F22813C2F200034FF072
:1018580000021A60BD4680BC704700BF80B400AF6C
:1018680042F67473C2F201034FF000021A6045F2A7
:101878002C73C2F201034FF000021A60BD4680BC0F
:10188800704700BF80B584B000AF786042F6FC6353
:10189800C2F201035B881AB240F6B7339A4267DD99
:1018A80042F6FC63C2F201035B881BB2A3F63A124C
:1018B80042F6FC63C2F201031B881BB2A3F60113B4
:1018C8009A4255DD42F6FC63C2F201035B881BB203
:1018D800A3F63A1242F6FC63C2F201031B881BB25C
:1018E800C3F5106303F101039A4241DD40F204138A
:1018F800C2F200031B68012B07D04FF48060C4F2CA
:1019080000004FF0FF010BF0A7FC4FF48060C4F219
:1019180000004FF0FF010BF0ADFC4FF00000C4F2E7
:1019280001004FF000010BF097FC4FF00000C4F2EB
:1019380001004FF07F010BF09DFC4FF00000C4F256
:1019480001004FF000010BF0A3FC4FF00000C4F2BF
:1019580001004FF07F010BF0A9FC4FF4966006F0F0
:10196800DBF804F03BFD4FF0640006F0D5F832E2F6
:1019780042F6FC63C2F201031B881AB240F6B73381
:101988009A4258DC42F6FC63C2F201035B881AB241
:1019980040F6B7339A424EDC42F6FC63C2F20103CA
:1019A8001B881AB240F2DC539A4244DD42F6FC63CB
:1019B800C2F201035B881AB240F2DC539A423ADD64
:1019C8004FF48060C4F200004FF000010BF044FCBB
:1019D8004FF48060C4F200004FF000010BF04AFCA5
:1019E8004FF00000C4F201004FF000010BF034FC8E
:1019F8004FF00000C4F201004FF000010BF03AFC78
:101A08004FF00000C4F201004FF000010BF040FC61
:101A18004FF00000C4F201004FF000010BF046FC4B
:101A28004FF4966006F078F804F0D8FC4FF06400A4
:101A380006F072F8CFE140F20413C2F200031B680B
:101A4800012B6ED042F6FC63C2F201035B881AB226
:101A580040F2DC539A4264DC42F6FC63C2F20103B2
:101A68005B881BB2C3F5136202F10A0242F6FC63FB
:101A7800C2F201031B881BB2C3F5106303F1010313
:101A88009A424EDD42F6FC63C2F201035B881BB248
:101A9800C3F5136303F10A0342F6FC62C2F20102C2
:101AA800128812B2A2F6011293423ADD4FF4806016
:101AB800C4F200004FF0FF010BF0CEFB4FF4806042
:101AC800C4F200004FF0FF010BF0D4FB4FF0000010
:101AD800C4F201004FF07F010BF0BEFB4FF0000095
:101AE800C4F201004FF000010BF0C4FB4FF00000FE
:101AF800C4F201004FF07F010BF0CAFB4FF0000069
:101B0800C4F201004FF000010BF0D0FB4FF49660D7
:101B180006F002F804F062FC4FF0640005F0FCFFE8
:101B280059E140F20413C2F200031B68012B6AD08A
:101B380042F6FC63C2F201031B881AB240F6B733BF
:101B48009A4260DD42F6FC63C2F201031B881BB2B5
:101B5800A3F6011242F6FC63C2F201035B881BB2D2
:101B6800A3F63A139A424EDD42F6FC63C2F2010331
:101B78001B881BB2A3F6011242F6FC63C2F20103F2
:101B88005B881BB2C3F5136303F10A039A423ADD7B
:101B98004FF48060C4F200004FF0FF010BF05CFBD3
:101BA8004FF48060C4F200004FF0FF010BF062FBBD
:101BB8004FF00000C4F201004FF07F010BF04CFB26
:101BC8004FF00000C4F201004FF000010BF052FB8F
:101BD8004FF00000C4F201004FF000010BF058FB79
:101BE8004FF00000C4F201004FF07F010BF05EFBE4
:101BF8004FF4966005F090FF04F0F0FB4FF064009E
:101C080005F08AFFE7E040F20413C2F200031B6804
:101C1800012B6ED042F6FC63C2F201031B881AB294
:101C280040F2DC539A4264DC42F6FC63C2F20103E0
:101C38001B881BB2C3F5106202F1010242F6FC6375
:101C4800C2F201035B881BB2C3F5136303F10A03F5
:101C58009A424EDD42F6FC63C2F201031B881BB2B6
:101C6800C3F5106303F1010342F6FC62C2F20102FC
:101C7800528812B2A2F63A1293423ADD4FF48060CB
:101C8800C4F200004FF0FF010BF0E6FA4FF4806059
:101C9800C4F200004FF0FF010BF0ECFA4FF0000027
:101CA800C4F201004FF000010BF0D6FA4FF000002B
:101CB800C4F201004FF07F010BF0DCFA4FF0000096
:101CC800C4F201004FF07F010BF0E2FA4FF0000080
:101CD800C4F201004FF000010BF0E8FA4FF49660EF
:101CE80005F01AFF04F07AFB4FF0640005F014FFCA
:101CF80071E042F6FC63C2F201031B881AB240F697
:101D080098039A4209DC42F6FC63C2F201031B887D
:101D18001AB240F2B6739A423ADC42F6FC63C2F257
:101D280001031B881AB240F62D139A4209DD42F6C8
:101D3800FC63C2F201031B881AB240F6FB139A42F5
:101D480026DD42F6FC63C2F201035B881AB240F654
:101D58001F139A4209DC42F6FC63C2F201035B8856
:101D68001AB240F6BE039A4212DC42F6FC63C2F293
:101D780001035B881AB240F64B139A422BDD42F6F8
:101D8800FC63C2F201035B881BB2B3F51B6F22DC54
:101D980040F21413C2F200031B6803F1010240F27F
:101DA8001413C2F200031A6040F21413C2F20003C3
:101DB8001B68142B0FDDFB7B9BB24FF4A050C4F2C1
:101DC800010019460CF0D0FD40F21413C2F20003D2
:101DD8004FF000021A6007F11007BD4680BD00BF32
:101DE80080B582B000AF0346FB71FB79662B49D101
:101DF80040F20413C2F200031B68012B00F0368185
:101E080040F22013C2F200031B78002B40F02E8111
:101E180044F2EC60C2F20100FFF7A6FC4BF24070FE
:101E2800C2F20100FFF7A0FC40F20C13C2F200035B
:101E38001B68012B0BD144F2EC60C2F20100FFF7E2
:101E4800A9FC4BF24070C2F20100FFF7A3FC40F27C
:101E58000C13C2F200031B68022B0BD147F6582063
:101E6800C2F20100FFF796FC45F2E840C2F2010019
:101E7800FFF790FC40F22013C2F200034FF001027A
:101E88001A70F3E040F20413C2F200031B68012B3E
:101E98000AD0FB79732B07D140F22013C2F200035A
:101EA8004FF005021A70E1E040F20413C2F2000399
:101EB8001B68012B44D0FB79622B41D140F22013DF
:101EC800C2F200031B78002B40F0D08047F6582060
:101ED800C2F20100FFF748FC45F2E840C2F20100F7
:101EE800FFF742FC40F20C13C2F200031B68012BFF
:101EF8000BD144F2EC60C2F20100FFF74BFC4BF24D
:101F08004070C2F20100FFF745FC40F20C13C2F228
:101F180000031B68022B0BD147F65820C2F20100C0
:101F2800FFF738FC45F2E840C2F20100FFF732FC47
:101F380040F22013C2F200034FF002021A7095E03B
:101F480040F20413C2F200031B68012B44D0FB7952
:101F58006C2B41D140F22013C2F200031B78002BF6
:101F680040F0848044F2EC60C2F20100FFF7FCFB11
:101F780045F2E840C2F20100FFF7F6FB40F20C130D
:101F8800C2F200031B68012B0BD144F2EC60C2F2D1
:101F98000100FFF7FFFB4BF24070C2F20100FFF7B0
:101FA800F9FB40F20C13C2F200031B68022B0BD1A1
:101FB80047F65820C2F20100FFF7ECFB45F2E84073
:101FC800C2F20100FFF7E6FB40F22013C2F2000361
:101FD8004FF003021A7049E040F20413C2F2000302
:101FE8001B68012B42D0FB79722B3FD140F22013A2
:101FF800C2F200031B78002B38D147F65820C2F2F2
:102008000100FFF7B1FB4BF24070C2F20100FFF78D
:10201800ABFB40F20C13C2F200031B68012B0BD17F
:1020280044F2EC60C2F20100FFF7B4FB4BF24070DF
:10203800C2F20100FFF7AEFB40F20C13C2F200033C
:102048001B68022B0BD147F65820C2F20100FFF79C
:10205800A1FB45F2E840C2F20100FFF79BFB40F20A
:102068002013C2F200034FF004021A7007F10807A8
:10207800BD4680BD80B582B000AF13460246FA71F6
:102088000A46BA717B71FB79002B32D1BB79A3F177
:102098006403032B2CD801A252F823F0B5200008C2
:1020A800BF200008CD200008E32000087B791846EF
:1020B800FFF796FE1DE07A7940F23003C2F2000382
:1020C8001A6016E07A7940F23813C2F200031B68EE
:1020D8001046194602F074FF0BE07A7940F2381383
:1020E800C2F200031B681046194602F0FBFF00E02D
:1020F80000BF07F10807BD4680BD00BF80B485B0AA
:1021080000AF87ED010A38604FF00003FB604FF025
:102118007E53BB604FF00003FB600BE097ED027A43
:10212800D7ED017A67EE277AC7ED027AFB6803F1EB
:102138000103FB60FA683B689A42EFDBBB6807EE75
:10214800903AB0EE670A07F11407BD4680BC7047A5
:1021580080B485B000AF87ED010A7B68FB60D7EDDE
:10216800037AF5EEC07AF1EE10FA05D5D7ED037AC9
:10217800F1EE677AC7ED037AFB6807EE903AB0EEA6
:10218800670A07F11407BD4680BC704780B588B060
:1021980000AF87ED010A4FF07E53FB617B68BB619E
:1021A8004FF002037B614FF000033B614FF00003E7
:1021B800FB6032E097ED077AD7ED067A77EE277A5B
:1021C800C7ED077A97ED067AD7ED017A67EE277A99
:1021D800C7ED067AD7ED057AF8EEE77A97ED067A35
:1021E800C7EE277AC7ED067A7B6903F101037B61A5
:1021F8003B6903F101033B6197ED060AFFF7A8FF6E
:10220800B0EE407ADFED0C7A67EE277AFDEEE77ADA
:10221800C7ED037AFB68092B03DD3B69132BC9DD86
:1022280000E000BFFB6907EE903AB0EE670A07F1DD
:102238002007BD4680BD00BF00007A4480B52DED63
:10224800028B90B000AFF86087ED020A79603A60BF
:1022580040F22013C2F200031B78002B00F0F48434
:102268004FF00003FB634FF00003BB63FB684FF0C4
:1022780000029A644FF00003FB63A7E0FB6893ED4C
:10228800277AFA68FB6B03F12A034FEA8303D31812
:10229800D3ED007A77EE677AB0EE670A4FF0020066
:1022A800FFF72CFFB0EE408AFB6893ED287AFA68B6
:1022B800FB6B03F130034FEA8303D318D3ED007AA5
:1022C80077EE677AB0EE670A4FF00200FFF716FF65
:1022D800F0EE407A38EE278AFB6893ED297AFA689F
:1022E800FB6B03F136034FEA8303D318D3ED007A6F
:1022F80077EE677AB0EE670A4FF00200FFF7FEFE4E
:10230800F0EE407A78EE277AFA68FB6B03F18603E1
:102318004FEA8303D31803F10403C3ED007AFA6884
:10232800FB6B03F186034FEA8303D31803F104031D
:1023380093ED007ADFEDCD7A67EE277AC7ED0D7A57
:10234800FA68FB6B03F14E034FEA8303D318D3ED0E
:10235800007AB0EE670A4FF00200FFF7CFFEF0EE0A
:10236800407A97ED0D7AC7EE277AC7ED0D7A97ED8B
:102378000D0AFFF70BFFF0EE407AFA68FB6B03F1EA
:102388000C034FEA8303D318C3ED007AFB6893ED7F
:10239800127AFA68FB6B03F10C034FEA8303D31834
:1023A800D3ED006AFA68FB6B03F15A034FEA830323
:1023B800D318D3ED007A66EEA77A77EE277AFB6812
:1023C800C3ED127AFB6B03F10103FB63FB6B052B77
:1023D8007FF754AFFB6893ED137AFB68D3ED127A5D
:1023E80077EE277AFB68C3ED137AD7ED017AB8EE5A
:1023F800E77AFB68D3ED127A77EE677AFB68C3ED6C
:102408001E7AFB68D3F88C20FB68C3F89020FB6821
:10241800D3F88820FB68C3F88C20FB68D3F88420A5
:10242800FB68C3F88820FB68D3F88020FB68C3F8F2
:102438008420FB68D3ED1E7AB0EE670AFFF788FEAA
:10244800F0EE407AFB68C3ED207AFB6893ED207AC2
:10245800FB68D3ED217A37EE277AFB68D3ED227A31
:1024680037EE277AFB68D3ED237A37EE277AFB68B5
:10247800D3ED247A37EE277ADFED7D7AC7EE277A17
:10248800FB68C3ED257A4FF00003FB6350E0FB685F
:1024980093ED1E7AFA68FB6B03F10C034FEA830392
:1024A800D318D3ED007A67EE277AC7ED0C7AFB686C
:1024B80093ED007AD7ED0C7A67EE277AFA68FB6B12
:1024C80003F160034FEA8303D318C3ED007AFA6877
:1024D800FB6B03F15A034FEA8303D3181A68F968B0
:1024E800FB6B03F17E034FEA8303CB181A60FA688B
:1024F800FB6B03F17E034FEA8303D31893ED007A55
:10250800FA68FB6B03F160034FEA8303D318D3ED3A
:10251800007A77EE277AFA68FB6B03F15A034FEAE1
:102528008303D318C3ED007AFB6B03F10103FB634C
:10253800FB6B052BABDD4FF00003FB6389E0FB6809
:1025480093ED007AFB68D3ED1E7A67EE277AC7ED24
:102558000B7AFA68FB6B03F15A034FEA8303D3182B
:10256800D3ED007A97ED0B7A67EE277AC7ED0B7AF1
:10257800FA68FB6B03F10C034FEA8303D318D3ED1E
:10258800007A97ED0B7A67EE277AC7ED0B7AFA682F
:10259800FB6B03F186034FEA8303D31803F10403AB
:1025A800D3ED007A97ED0B7A67EE277AC7ED0B7AB1
:1025B800FA68FB6B03F14E034FEA8303D318D3ED9C
:1025C800007AB0EE670A4FF00300FFF797FDF0EED0
:1025D800407A97ED0B7AC7EE277AC7ED0B7AFA683F
:1025E800FB6B03F154034FEA8303D318FA6A1A60AA
:1025F800FA68FB6B03F14E034FEA8303D3181A689A
:10260800F968FB6B03F178034FEA8303CB181A6070
:10261800FA68FB6B03F178034FEA8303D31893ED51
:10262800007AFA68FB6B03F154034FEA8303D3186B
:10263800D3ED007A77EE277AFA68FB6B03F14E0345
:102648004FEA8303D318C3ED007AFB6B03F1010350
:10265800FB63FB6B052B7FF772AF4FF00003FB6347
:10266800DDE04FF00003BB63D1E000BF000000BF16
:102678000000A040FB6893ED007AFB68D3ED1E7A5A
:1026880067EE277AC7ED0A7AFA68FB6B03F15A03FB
:102698004FEA8303D318D3ED007A97ED0A7A67EEF1
:1026A800277AC7ED0A7AFA68FB6B03F10C034FEA45
:1026B8008303D318D3ED007A97ED0A7A67EE277A69
:1026C800C7ED0A7AFA68BB6B03F126034FEA830366
:1026D800D31803F1040393ED007AF968BA6B134633
:1026E8004FEA43039B184FEA4303FA6B9B1803F125
:1026F8002A034FEA8303CB18D3ED007A77EE677A83
:1027080097ED0A7A67EE277AC7ED0A7AFA68FB6BC3
:1027180003F14E034FEA8303D318D3ED007AB0EEEA
:10272800670A4FF00200FFF7E9FCF0EE407A97EDF8
:102738000A7AC7EE277AC7ED0A7AF968BA6B1346A0
:102748004FEA43039B184FEA4303FA6B9B1803F1C4
:102758003C034FEA8303CB18BA6A1A60F968BA6B6C
:1027680013464FEA43039B184FEA4303FA6B9B183F
:1027780003F12A034FEA8303CB181968F868BA6B88
:1027880013464FEA43039B184FEA4303FA6B9B181F
:1027980003F166034FEA8303C3181960F968BA6B3B
:1027A80013464FEA43039B184FEA4303FA6B9B18FF
:1027B80003F166034FEA8303CB1893ED007AF968B7
:1027C800BA6B13464FEA43039B184FEA4303FA6B6D
:1027D8009B1803F13C034FEA8303CB18D3ED007A2F
:1027E80077EE277AF968BA6B13464FEA43039B18CA
:1027F8004FEA4303FA6B9B1803F12A034FEA83035A
:10280800CB18C3ED007ABB6B03F10103BB63BB6B51
:10281800022B7FF72FAFFB6B03F10103FB63FB6B0D
:10282800052B7FF71EAFFB684FF00002DA614FF00F
:102838000003FB6354E0FA68FB6B03F15A034FEAA9
:102848008303D31893ED007AFA68FB6B03F10C034A
:102858004FEA8303D318D3ED007A67EE277AC7EDE2
:10286800097AFB68D3ED277AF1EE677AC7ED087A23
:10287800FA68FB6B03F12A034FEA8303D31893ED3D
:10288800007AD7ED087A77EE277A97ED097A67EE1E
:10289800277AC7ED097AFA68FB6B03F14E034FEA12
:1028A8008303D318D3ED007AB0EE670A4FF0020025
:1028B800FFF724FCF0EE407A97ED097AC7EE277A05
:1028C800C7ED097AFB6893ED077AD7ED097A77EEB9
:1028D800277AFB68C3ED077AFB6B03F10103FB63FF
:1028E800FB6B052BA7DDFB68DA69FB681A62FB68DE
:1028F800D3ED0A7A97ED020AF0EE670AFEF79CF923
:10290800F0EE407AFB68C3ED097AFB6893ED097A2B
:10291800D7ED017AF8EEE77A77EE677AFB68C3EDD0
:102928001F7AFB6893ED8D8AFB68D3ED1F7AB0EEB2
:10293800670AFFF70DFCF0EE407A78EE277AFB681D
:10294800C3ED8D7AFB689A6AFB68DA62FB685A6A9B
:10295800FB689A62FB68D3F84032FA68D2ED097ACC
:10296800FDEEE77A17EE902A9A18FB68C3F8402222
:10297800FB6893ED1F7AFB68D3ED1C7A77EE677AD4
:10298800FB68C3ED847AFB68DA6FFB68C3F814222E
:10299800FB6893ED1F7AFB68D3ED1C7A77EEA77A74
:1029A80037EE677AFB68D3ED1D7A77EE277AFB68F6
:1029B800C3ED867AD7ED007AB8EEE77AFB68D3EDF7
:1029C800137A37EE677AD7ED007AF8EEE77AC7EE32
:1029D800277AFDEEE77AC7ED077AFB694FF06402C4
:1029E80002FB03F3FB61FB69092B07DCFB68D3F8E7
:1029F800983003F10102FB68C3F89820FB69092BA2
:102A080000F3B5807B68012B40F3B180FB68D3F8F5
:102A180098301E2B40F3AB80FB6893ED257ADFEDF1
:102A28008D7AB4EEE77AF1EE10FA40F1A080FB68F7
:102A3800D3F8983003F10102FB68C3F89820FB68CB
:102A480093ED007AFB68D3ED1F7A67EE277AC7ED1E
:102A5800067AFB68D3ED087A97ED067A67EE277A4F
:102A6800C7ED067AFB68D3ED847A97ED067A67EEB0
:102A7800277AC7ED067AFB6893ED007AFB68D3EDF9
:102A88001F7A67EE277AC7ED057AFB68D3ED087AD7
:102A980097ED057A67EE277AC7ED057AFB68D3EDDF
:102AA800857A97ED057A67EE277AC7ED057AFB6890
:102AB80093ED007AFB68D3ED1F7A67EE277AC7EDAE
:102AC800047AFB68D3ED087A97ED047A67EE277AE3
:102AD800C7ED047AFB68D3ED867A97ED047A67EE42
:102AE800277AC7ED047AFB685A68FB681A61FB68A5
:102AF8009A68FB685A61FB68DA68FB689A61FB6848
:102B0800D3F83C32002B32D140F22013C2F200033A
:102B18001B78012B2BD1FB6893ED047AD7ED067A4D
:102B280077EE277AFB68C3ED017AFB6893ED057AA7
:102B3800D7ED057A77EE277AFB68C3ED027AFB6852
:102B4800D3ED017AF5EEC07AF1EE10FA03D8FB68FE
:102B58004FF000025A60FB68D3ED027AF5EEC07AB6
:102B6800F1EE10FA03D8FB684FF000029A60FB6898
:102B780093ED017AFB68D3ED847A27EE277AFB6818
:102B8800D3ED026AFB68D3ED857A66EEA77A37EE55
:102B9800277AFB68D3ED036AFB68D3ED867A66EE85
:102BA800A77A77EE277AFB68C3ED157AFB6893ED71
:102BB800177AFB68D3ED157A77EE277AFB68C3EDB1
:102BC800167AFB68D3ED167AF5EEC07AF1EE10FAB4
:102BD80004D5FB684FF000029A650FE0FB6893ED9F
:102BE800167ADFED1D7AB4EEE77AF1EE10FA05DD1C
:102BF800FB684FF00002C4F2DC229A65FB68D3F848
:102C0800A020FB681A65FB68DA6DFB681A66FB682A
:102C18009A6DFB68DA65FB681A6FFB685A67FB6890
:102C2800DA6FFB681A67FB685A6DFB68C3F89C206B
:102C3800D7ED017AF8EEE77AFB68C3ED287AFB68EE
:102C48001A6DFB68C3F8A42007F14007BD46BDEC28
:102C5800028B80BD0000803F0000DC4280B584B05C
:102C680000AFF86087ED020A79603A60FB68D3ED3F
:102C78000A7A97ED020AF0EE670AFDF7DDFFF0EE3B
:102C8800407AFB68C3ED097AFB6893ED097AD7EDC2
:102C9800017AF8EEE77A77EE677AFB68C3ED1F7A78
:102CA800FB689A6AFB68DA62FB685A6AFB689A6290
:102CB800FB68D3F84032FA68D2ED097AFDEEE77A7C
:102CC80017EE902A9A18FB68C3F84022FB6893ED28
:102CD8001F7AFB68D3ED1C7A77EE677AFB68C3ED41
:102CE800847AFB68DA6FFB68C3F81422FB6893EDFB
:102CF8001F7AFB68D3ED1C7A77EEA77A37EE677AEE
:102D0800FB68D3ED1D7A77EE277AFB68C3ED867AE8
:102D1800FB6893ED017AFB68D3ED847A27EE277A76
:102D2800FB68D3ED026AFB68D3ED857A66EEA77A75
:102D380037EE277AFB68D3ED036AFB68D3ED867A12
:102D480066EEA77A77EE277AFB68C3ED157AFB68FB
:102D580093ED177AFB68D3ED157A77EE277AFB683F
:102D6800C3ED167AFB68D3ED167AF5EEC07AF1EE6C
:102D780010FA04D5FB684FF000029A650FE0FB6873
:102D880093ED167ADFED127AB4EEE77AF1EE10FAE7
:102D980005DDFB684FF00002C4F2DC229A65FB688F
:102DA800D3F8A020FB681A65FB68DA6DFB681A6621
:102DB800FB689A6DFB68DA65FB681A6FFB685A67EF
:102DC800FB68DA6FFB681A6707F11007BD4680BD1C
:102DD8000000DC422DE9F04F93B00CAFF86040F2F0
:102DE8000413C2F200031B68012B40F024824FF049
:102DF80000037B6140F21013C2F200031B68A3F1C9
:102E080002037B61A0E04CF24453C2F201037A69E9
:102E180053F822E047F69C43C2F201037A6953F85B
:102E2800226047F69C43C2F201037A6953F82220D4
:102E38007B6903F1FF3147F69C43C2F2010353F863
:102E48002130D51A43F63433C2F201037A6953F8B4
:102E5800224043F63433C2F201037A6953F8222040
:102E68007B6903F1FF3143F63433C2F2010353F8AF
:102E78002130D31ABB604AF68833C2F201037A695B
:102E880053F822207A6045F23073C2F201037A695E
:102E980053F822203A6046F6A063C2F201037A6929
:102EA80053F822B044F63013C2F201037A6953F89A
:102EB80022A04BF68413C2F201037A6953F82290D8
:102EC80046F2E823C2F201037A6953F8228049F2F4
:102ED8001043C2F201037A6953F822C042F67C73A8
:102EE800C2F201037A6953F8220049F6C873C2F2A4
:102EF80001037A6953F8221048F65802C2F2010217
:102F08007B6952F823300094BA6801927A68029279
:102F18003A680392CDF810B0CDF814A0CDF8189007
:102F2800CDF81C80CDF820C009900A910B9340F28F
:102F3800EC00C0F60100714632462B460CF004F84E
:102F48007B6903F101037B6140F21013C2F20003B5
:102F58001B687A699A42FFF656AF44F2EC63C2F2F4
:102F68000103D3ED8D7AFDEEE77A17EE902A44F24D
:102F7800EC63C2F20103D3ED8E7AFDEEE77A17EE29
:102F8800903A40F21C10C0F6010011461A460BF0A8
:102F9800DBFF4BF24073C2F20103D3ED8D7AFDEEF5
:102FA800E77A17EE902A4BF24073C2F20103D3ED91
:102FB8008E7AFDEEE77A17EE903A40F24410C0F6AA
:102FC800010011461A460BF0BFFF44F2EC63C2F24F
:102FD8000103D3F83C32012B05D140F26C10C0F646
:102FE80001000BF0C9FF4BF24073C2F20103D3F8A2
:102FF8003C32012B05D140F27410C0F601000BF0F1
:10300800BBFF40F22003C2F200031B6840F27C10B1
:10301800C0F6010019460BF097FF40F2EE209FED35
:10302800880A43F63431C2F20101FDF70DFD40F282
:10303800EE209FED830A47F69C41C2F20101FDF79D
:1030480003FD40F2EE209FED7E0A45F23071C2F298
:103058000101FDF7F9FC40F2EE209FED790A4AF6EE
:103068008831C2F20101FDF7EFFC40F2EE209FED3E
:10307800740A46F6A061C2F20101FDF7E5FC40F2D0
:10308800EE209FED6F0A44F63011C2F20101FDF700
:10309800DBFC40F2EE209FED6A0A4BF68411C2F287
:1030A8000101FDF7D1FC40F2EE209FED650A46F2E2
:1030B800E821C2F20101FDF7C7FC40F2EE209FEDC6
:1030C800600A49F21041C2F20101FDF7BDFC40F26D
:1030D800EE209FED5B0A42F67C71C2F20101FDF71A
:1030E800B3FC40F2EE209FED560A4CF24451C2F276
:1030F8000101FDF7A9FC40F2EE209FED510A49F6C7
:10310800C871C2F20101FDF79FFC40F2EE209FED6D
:103118004C0A48F65801C2F20101FDF795FC40F24D
:103128000C13C2F200031B68012B37D144F2EC6385
:10313800C2F20103D3F8342244F2EC63C2F2010371
:10314800C3F8382244F2EC63C2F201034FF00002E4
:10315800C3F8342244F2EC63C2F201034FF00002D8
:10316800C3F840224BF24073C2F20103D3F8342271
:103178004BF24073C2F20103C3F838224BF240739A
:10318800C2F201034FF00002C3F834224BF240733D
:10319800C2F201034FF00002C3F8402240F20C13C0
:1031A800C2F200031B68022B37D147F65823C2F23C
:1031B8000103D3F8342247F65823C2F20103C3F8B7
:1031C800382247F65823C2F201034FF00002C3F831
:1031D800342247F65823C2F201034FF00002C3F825
:1031E800402245F2E843C2F20103D3F8342245F203
:1031F800E843C2F20103C3F8382245F2E843C2F2B9
:1032080001034FF00002C3F8342245F2E843C2F24A
:1032180001034FF00002C3F8402240F21013C2F23B
:1032280000034FF000021A6040F20413C2F20003D8
:103238004FF000021A604FF0140004F06DFCCEE568
:103248000000000080B400AF40F21013C2F2000387
:103258001A6840F2ED239A4200F3278140F21013D6
:10326800C2F200031A6840F22813C2F20003196878
:1032780043F63433C2F2010343F8221040F210132C
:10328800C2F200031A6840F22413C2F2000319685C
:1032980047F69C43C2F2010343F8221040F2101390
:1032A800C2F200031A6844F2EC63C2F20103D3EDE0
:1032B800137AFDEEE77A45F23073C2F2010317EE96
:1032C800901A43F8221040F21013C2F200031A6851
:1032D8004BF24073C2F20103D3ED137AFDEEE77AA5
:1032E8004AF68833C2F2010317EE901A43F8221007
:1032F80040F21013C2F200031A684BF24073C2F294
:10330800010393ED017ADFED6A7A67EE277AFDEE25
:10331800E77A46F6A063C2F2010317EE901A43F863
:10332800221040F21013C2F200031A6844F2EC6350
:10333800C2F2010393ED017ADFED5D7A67EE277A39
:10334800FDEEE77A44F63013C2F2010317EE901A45
:1033580043F8221040F21013C2F200031A684BF22D
:103368004073C2F2010393ED027ADFED517A67EE02
:10337800277AFDEEE77A4BF68413C2F2010317EEC3
:10338800901A43F8221040F21013C2F200031A6890
:1033980044F2EC63C2F2010393ED027ADFED447A62
:1033A80067EE277AFDEEE77A46F2E823C2F20103D8
:1033B80017EE901A43F8221040F21013C2F20003DD
:1033C8001A684BF24073C2F2010393ED037ADFED02
:1033D800397A67EE277AFDEEE77A42F67C73C2F215
:1033E800010317EE901A43F8221040F21013C2F2AC
:1033F80000031A6844F2EC63C2F2010393ED037A06
:10340800DFED2C7A67EE277AFDEEE77A49F2104372
:10341800C2F2010317EE901A43F8221040F210137B
:10342800C2F200031A6844F2EC63C2F20103D3F853
:1034380040124CF24453C2F2010343F8221040F206
:103448001013C2F200031A684BF24073C2F2010370
:10345800D3ED177AFDEEE77A49F6C873C2F2010395
:1034680017EE901A43F8221040F21013C2F200032C
:103478001A6844F2EC63C2F20103D3ED177AFDEE49
:10348800E77A48F65803C2F2010317EE901A43F898
:10349800221040F21013C2F200031B6803F101026C
:1034A80040F21013C2F200031A60BD4680BC704798
:1034B80000401C460000C84280B483B000AF78606A
:1034C8007B68DA6D7B685A667B681A6E7B689A66D9
:1034D8007B689A6D7B68DA6607F10C07BD4680BC8D
:1034E800704700BF80B594B000AF78604FF001001E
:1034F80000F03EFF4FF0020000F03AFF4FF00400EA
:1035080000F036FF4FF0080000F032FF40F22013C1
:10351800C2F200031B78012B70D100F0A9FD40F224
:103528002403C2F200031A6840F21C13C2F200031B
:103538001A6040F21C13C2F20003D3ED007A4AF677
:103548008033C2F201031A6840F22813C2F2000362
:103558001B6844F2EC60C2F20100B0EE670A114643
:103568001A46FEF76BFE40F21C13C2F20003D3EDBD
:10357800007A4CF24053C2F201031A6840F2241355
:10358800C2F200031B684BF24070C2F20100B0EEB9
:10359800670A11461A46FEF751FEFFF753FE4BF233
:1035A8004073C2F201039B6DFB6444F2EC63C2F208
:1035B80001039B6DBB64D7ED137AFDEEE77A17EE36
:1035C800902A40F21403C2F200031B68D3181A466B
:1035D800D7ED127AFDEEE77A17EE901A40F218034B
:1035E800C2F200031B68CB1840F29C10C0F6010021
:1035F80011461A4600F052FF00F023BD40F2201396
:10360800C2F200031B78022B77D100F031FD4FF096
:1036180000037B6440F21C13C2F200034FF0000267
:10362800C4F220121A6040F21C13C2F20003D3ED58
:10363800007A4AF68033C2F201031A6840F228136E
:10364800C2F200031B6847F65820C2F20100B0EE30
:10365800670A11461A46FEF7F1FD40F21C13C2F242
:103668000003D3ED007A4CF24053C2F201031A680A
:1036780040F22413C2F200031B6845F2E840C2F28C
:103688000100B0EE670A11461A46FEF7D7FD45F26B
:10369800E843C2F20103DB6D3B6447F65823C2F2EC
:1036A8000103DB6DFB6340F21403C2F20003D3EDA8
:1036B800007AB8EEE77AD7ED107A77EE677AFCEE03
:1036C800E77A17EE902A40F21803C2F20003D3ED0E
:1036D800007AB8EEE77AD7ED0F7A77EE677AFCEEE4
:1036E800E77A17EE903A40F29C10C0F601001146B6
:1036F8001A4600F0D3FE00F0A4BC40F22013C2F238
:1037080000031B78032B40F0BF8040F21C13C2F269
:1037180000034FF00002C4F2A0021A6000F0A8FCF7
:1037280040F22813C2F200031B68962B21DD40F2F9
:103738001C13C2F200034FF000021A6040F21C137F
:10374800C2F20003D3ED007A4AF68033C2F20103D5
:103758001A6840F22813C2F200031B6844F2EC60B6
:10376800C2F20100B0EE670A11461A46FFF776FA70
:1037780019E040F21C13C2F20003D3ED007A4AF6B6
:103788008033C2F201031A6840F22813C2F2000320
:103798001B6844F2EC60C2F20100B0EE670A114601
:1037A8001A46FFF75BFA40F22413C2F200031B68C3
:1037B800962B21DD40F21C13C2F200034FF00002E9
:1037C8001A6040F21C13C2F20003D3ED007A4CF2E7
:1037D8004053C2F201031A6840F22413C2F20003F4
:1037E8001B6845F2E840C2F20100B0EE670A1146D4
:1037F8001A46FFF733FA19E040F21C13C2F200032D
:10380800D3ED007A4CF24053C2F201031A6840F239
:103818002413C2F200031B6845F2E840C2F201001B
:10382800B0EE670A11461A46FFF718FA45F2E84360
:10383800C2F201039B6DBB6344F2EC63C2F2010365
:103848009B6D7B6340F21403C2F200031B68D7ED43
:103858000E7AFDEEE77A17EE902A9B1A1A46D7EDF4
:103868000D7AFDEEE77A17EE901A40F21803C2F2CD
:1038780000031B68CB1840F2A410C0F601001146E3
:103888001A4600F00BFEDCE340F22013C2F20003FC
:103898001B78042B40F0BF8040F21C13C2F20003D7
:1038A8004FF00002C4F2A0021A6000F0E1FB40F2FF
:1038B8002813C2F200031B68962B21DD40F21C136B
:1038C800C2F200034FF000021A6040F21C13C2F269
:1038D8000003D3ED007A4AF68033C2F201031A6876
:1038E80040F22813C2F200031B6847F65820C2F2C0
:1038F8000100B0EE670A11461A46FFF7AFF919E062
:1039080040F21C13C2F20003D3ED007A4AF680336A
:10391800C2F201031A6840F22813C2F200031B68BE
:1039280047F65820C2F20100B0EE670A11461A465F
:10393800FFF794F940F22413C2F200031B68962B98
:1039480021DD40F21C13C2F200034FF000021A609E
:1039580040F21C13C2F20003D3ED007A4CF240533C
:10396800C2F201031A6840F22413C2F200031B6872
:103978004BF24070C2F20100B0EE670A11461A46D7
:10398800FFF76CF919E040F21C13C2F20003D3ED03
:10399800007A4CF24053C2F201031A6840F2241331
:1039A800C2F200031B684BF24070C2F20100B0EE95
:1039B800670A11461A46FFF751F94BF24073C2F2F3
:1039C80001039B6D3B6347F65823C2F201039B6DCD
:1039D800FB62D7ED0C7AFDEEE77A17EE902A40F2FB
:1039E8001403C2F200031B68D3181A4640F21803E6
:1039F800C2F200031B68D7ED0B7AFDEEE77A17EEEB
:103A0800901A5B1A40F2AC10C0F6010011461A4633
:103A180000F044FD15E340F22013C2F200031B78C6
:103A2800052B40F0EE8200F023FB40F20C13C2F2AB
:103A380000031B68012B40F0B9804CF24053C2F2DE
:103A480001031B68022B77DD4AF68033C2F20103BB
:103A58001B68022B70DD40F21C13C2F200034FF00A
:103A680000021A6040F21C13C2F20003D3ED007A80
:103A78004CF24053C2F201031A6840F22413C2F216
:103A880000031B684BF24070C2F20100B0EE670AF7
:103A980011461A46FFF7E2F840F21C13C2F200037F
:103AA800D3ED007A4AF68033C2F201031A6840F275
:103AB8002813C2F200031B6844F2EC60C2F2010052
:103AC800B0EE670A11461A46FFF7C8F84BF2407382
:103AD800C2F201039B6DBB6244F2EC63C2F20103C4
:103AE8009B6D7B6240F21403C2F20003D3ED007AAF
:103AF800B8EEE77AD7ED0A7A77EE277AFCEEE77A1E
:103B080017EE902A40F21803C2F20003D3ED007AB0
:103B1800B8EEE77AD7ED097A77EE277AFCEEE77AFE
:103B280017EE903A40F29C10C0F6010011461A4672
:103B380000F0B4FC00BF83E244F2EC60C2F2010082
:103B4800FFF7BAFC4BF24070C2F20100FFF7B4FC79
:103B580044F2EC60C2F20100FDF740FB4BF240700A
:103B6800C2F20100FDF73AFB40F22013C2F2000353
:103B78004FF000021A7040F21403C2F200031B68EF
:103B88001A4640F21803C2F200031B6840F29C1068
:103B9800C0F6010011461A4600F080FC40F20413FA
:103BA800C2F200034FF001021A604AE240F20C131D
:103BB800C2F200031B68022B40F0B9804CF240535C
:103BC800C2F201031B68022B77DD4AF68033C2F28A
:103BD80001031B68022B70DD40F21C13C2F20003C4
:103BE8004FF000021A6040F21C13C2F20003D3ED3A
:103BF800007A4CF24053C2F201031A6840F22413CF
:103C0800C2F200031B6845F2E840C2F20100B0EEC0
:103C1800670A11461A46FFF721F840F21C13C2F250
:103C28000003D3ED007A4AF68033C2F201031A6822
:103C380040F22813C2F200031B6847F65820C2F26C
:103C48000100B0EE670A11461A46FFF707F845F279
:103C5800E843C2F201039B6D3B6247F65823C2F268
:103C680001039B6DFB6140F21403C2F20003D3ED24
:103C7800007AB8EEE77AD7ED087A77EE677AFCEE45
:103C8800E77A17EE902A40F21803C2F20003D3ED48
:103C9800007AB8EEE77AD7ED077A77EE677AFCEE26
:103CA800E77A17EE903A40F29C10C0F601001146F0
:103CB8001A4600F0F3FB00BFC2E147F65820C2F2F3
:103CC8000100FFF7F9FB45F2E840C2F20100FFF7F7
:103CD800F3FB47F65820C2F20100FDF77FFA45F2E0
:103CE800E840C2F20100FDF779FA40F22013C2F26F
:103CF80000034FF000021A7040F21403C2F20003EE
:103D08001B681A4640F21803C2F200031B6840F20F
:103D18009C10C0F6010011461A4600F0BFFB40F2A5
:103D28000413C2F200034FF001021A6089E140F265
:103D38000C13C2F200031B68032B40F0AD804CF259
:103D48004053C2F201031B68022B77DD4AF6803329
:103D5800C2F201031B68022B70DD40F21C13C2F291
:103D680000034FF000021A6040F21C13C2F2000375
:103D7800D3ED007A4CF24053C2F201031A6840F2C4
:103D88002413C2F200031B6845F2E840C2F20100A6
:103D9800B0EE670A11461A46FEF760FF40F21C13A0
:103DA800C2F20003D3ED007A4AF68033C2F201036F
:103DB8001A6840F22813C2F200031B6844F2EC6050
:103DC800C2F20100B0EE670A11461A46FEF746FF36
:103DD80045F2E843C2F201039B6DBB6144F2EC6318
:103DE800C2F201039B6D7B6140F21403C2F200032F
:103DF800D3ED007AB8EEE77AD7ED067A77EE677AF0
:103E0800FCEEE77A17EE902A40F21803C2F200039C
:103E1800D3ED007AB8EEE77AD7ED057A77EE277A10
:103E2800FCEEE77A17EE903A40F29C10C0F60100DB
:103E380011461A4600F032FB00BF01E144F2EC6083
:103E4800C2F20100FDF7CAF945F2E840C2F20100EA
:103E5800FDF7C4F940F22013C2F200034FF000024C
:103E68001A7040F21403C2F200031B681A4640F2AB
:103E78001803C2F200031B6840F29C10C0F6010050
:103E880011461A4600F00AFB40F20413C2F200037E
:103E98004FF001021A60D4E040F20C13C2F20003A2
:103EA8001B68042B40F0CC804CF24053C2F2010353
:103EB8001B68022B77DD4AF68033C2F201031B68C8
:103EC800022B70DD40F21C13C2F200034FF0000217
:103ED8001A6040F21C13C2F20003D3ED007A4CF2D0
:103EE8004053C2F201031A6840F22413C2F20003DD
:103EF8001B684BF24070C2F20100B0EE670A11462F
:103F08001A46FEF7ABFE40F21C13C2F20003D3EDD3
:103F1800007A4AF68033C2F201031A6840F2281385
:103F2800C2F200031B6847F65820C2F20100B0EE47
:103F3800670A11461A46FEF791FE4BF24073C2F229
:103F480001039B6D3B6147F65823C2F201039B6D49
:103F5800FB6040F21403C2F20003D3ED007AB8EE1E
:103F6800E77AD7ED047A77EE277AFCEEE77A17EE50
:103F7800902A40F21803C2F20003D3ED007AB8EE9B
:103F8800E77AD7ED037A77EE677AFCEEE77A17EEF1
:103F9800903A40F29C10C0F6010011461A4600F013
:103FA8007DFA00BF4DE047F65820C2F20100FDF748
:103FB80015F94BF24070C2F20100FDF70FF940F21B
:103FC8002013C2F200034FF000021A7040F21403EB
:103FD800C2F200031B681A4640F21803C2F200033B
:103FE8001B6840F29C10C0F6010011461A4600F00A
:103FF80055FA40F20413C2F200034FF001021A60AE
:104008001EE040F22013C2F200031B78002B18D1E7
:1040180040F21403C2F200031B681A4640F2180368
:10402800C2F200031B6840F29C10C0F60100114662
:104038001A4600F033FAFDF711FCFDF7FBFB00E030
:1040480000BF4FF0010000F0A1F94FF0020000F0AE
:104058009DF94FF0040000F099F94FF0080000F0C6
:1040680095F94FF0140003F057FDFFF73FBA00BF72
:1040780080B400AF45F22C73C2F201031A684AF605
:104088008033C2F201031A6042F67473C2F201036C
:104098001A684CF24053C2F201031A6042F6747374
:1040A800C2F201034FF000021A6045F22C73C2F20B
:1040B80001034FF000021A60BD4680BC704700BF84
:1040C80080B500AF4FF0010007F0B8F90346002BA8
:1040D8007AD042F67473C2F201031B6803F101023D
:1040E80042F67473C2F201031A6040F22413C2F25A
:1040F80000031B6803F1010240F22413C2F200031B
:104108001A6040F22013C2F200031B78032B28D157
:1041180040F22813C2F200031B68952B50DD40F2D1
:104128002413C2F200031B68952B49DD44F2EC60AE
:10413800C2F20100FDF752F845F2E840C2F2010070
:10414800FDF74CF840F22013C2F200034FF00002D2
:104158001A7040F20C13C2F200034FF003021A6007
:104168002EE040F22013C2F200031B78042B27D163
:1041780040F22813C2F200031B68952B20DD40F2A1
:104188002413C2F200031B68952B19DD47F658204B
:10419800C2F20100FDF722F84BF24070C2F20100B2
:1041A800FDF71CF840F22013C2F200034FF00002A2
:1041B8001A7040F20C13C2F200034FF004021A60A6
:1041C8004FF0010007F066F980BD00BF80B500AF71
:1041D8004FF0020007F032F90346002B7AD045F27F
:1041E8002C73C2F201031B6803F1010245F22C7320
:1041F800C2F201031A6040F22813C2F200031B68DE
:1042080003F1010240F22813C2F200031A6040F2DF
:104218002013C2F200031B78032B28D140F2281385
:10422800C2F200031B68952B50DD40F22413C2F242
:1042380000031B68952B49DD44F2EC60C2F20100D3
:10424800FCF7CCFF45F2E840C2F20100FCF7C6FFDC
:1042580040F22013C2F200034FF000021A7040F23D
:104268000C13C2F200034FF003021A602EE040F272
:104278002013C2F200031B78042B27D140F2281325
:10428800C2F200031B68952B20DD40F22413C2F212
:1042980000031B68952B19DD47F65820C2F2010070
:1042A800FCF79CFF4BF24070C2F20100FCF796FF4E
:1042B80040F22013C2F200034FF000021A7040F2DD
:1042C8000C13C2F200034FF004021A604FF0020010
:1042D80007F0E0F880BD00BF80B500AF4FF00400E4
:1042E80007F0ACF80346002B1BD042F67473C2F2F9
:1042F80001031B6803F1010242F67473C2F2010361
:104308001A6040F22413C2F200031B6803F1010291
:1043180040F22413C2F200031A604FF0040007F0C1
:10432800B9F880BD80B500AF4FF0080007F086F8F7
:104338000346002B1BD045F22C73C2F201031B6805
:1043480003F1010245F22C73C2F201031A6040F234
:104358002813C2F200031B6803F1010240F228137C
:10436800C2F200031A604FF0080007F093F880BD0E
:1043780080B485B000AF78607B68BB604FF0000305
:10438800BB7307F11407BD4680BC704780B485B085
:1043980000AF78607B68BB604FF00103BB7307F127
:1043A8001407BD4680BC704780B582B000AF786006
:1043B80039604FF40060C4F20000796808F05AFFD1
:1043C8004FF40060C4F20000396808F06FFF07F18D
:1043D8000807BD4680BD00BF80B582B000AF7860D9
:1043E80039604FF40060C4F200004FF07F0108F01C
:1043F80041FF4FF40060C4F200004FF07F0108F065
:1044080055FF07F10807BD4680BD00BF80B582B0E3
:1044180000AF786039604FF40060C4F2000079683A
:1044280008F028FF4FF40060C4F20000396808F073
:104438003DFF07F10807BD4680BD00BF80B582B0CB
:1044480000AF786039604FF40060C4F2000079680A
:1044580008F010FF4FF40060C4F20000396808F05B
:1044680025FF07F10807BD4680BD00BF80B582B0B3
:1044780000AF786039604FF40060C4F200007968DA
:1044880008F0F8FE4FF40060C4F20000396808F044
:104498000DFF07F10807BD4680BD00BF90B587B086
:1044A80000AFF860B9607A604FF000037B613CE0D0
:1044B80040F23402C2F2000279690B464FEA430324
:1044C8005B184FEA8303D3181C6840F23402C2F227
:1044D800000279690B464FEA43035B184FEA8303EE
:1044E800D3181B68184600F071FB0346F86821468C
:1044F8001A4600F0A9FB0346002B12D140F2340201
:10450800C2F2000279690B464FEA43035B184FEA8F
:104518008303D31803F108031B68B86879689847C0
:1045280006E07B6903F101037B617B69042BBFD93A
:1045380007F11C07BD4690BD80B58AB000AF786012
:104548004FF480204FF0010107F066FE4FF00200A3
:104558004FF0010107F0E2FD4FF440633B624FF07A
:10456800020387F824304FF0020387F825304FF014
:10457800000387F826304FF0010387F8273007F14A
:1045880020034FF48060C4F20200194607F04EF889
:104598004FF48060C4F202004FF00A014FF00702A6
:1045A80007F0D2F94FF48060C4F202004FF00B011B
:1045B8004FF0070207F0C8F97B683B614FF0000332
:1045C800BB824FF00003FB824FF000033B834FF0A8
:1045D8000003BB834FF00C037B8307F110034FF4F8
:1045E8009040C4F2000019460AF002F84FF49040D7
:1045F800C4F2000040F225514FF001020AF05EFBC0
:104608004FF027033B734FF000037B734FF0000319
:10461800BB734FF00103FB7307F10C03184605F059
:1046280041FB4FF49040C4F200004FF001010AF042
:104638001BF907F12807BD4680BD00BF80B58AB0C9
:1046480000AF78604FF004004FF0010107F066FDFD
:104658004FF004004FF0010107F060FD4FF0C00378
:104668003B624FF0020387F824304FF0020387F8CB
:1046780025304FF0000387F826304FF0010387F804
:10468800273007F120034FF40060C4F202001946F6
:1046980006F0CCFF4FF40060C4F202004FF00601B0
:1046A8004FF0080207F050F94FF40060C4F202001E
:1046B8004FF007014FF0080207F046F97B683B61AD
:1046C8004FF00003BB824FF00003FB824FF0000362
:1046D8003B834FF00003BB834FF00C037B8307F150
:1046E80010034FF4A050C4F20100194609F080FFEE
:1046F8004FF4A050C4F2010040F225514FF00102DE
:104708000AF0DCFA4FF047033B734FF000037B736A
:104718004FF00003BB734FF00103FB7307F10C0369
:10472800184605F0BFFA4FF4A050C4F201004FF04C
:1047380001010AF099F807F12807BD4680BD00BFBE
:1047480080B500AF4FF49040C4F2000040F225510C
:104758000AF038FB0346002B00F08F804FF490439B
:10476800C4F200039B889BB2DAB242F6F863C2F245
:1047780001031A7040F23F13C2F200031B78312B79
:104788006DD840F23F13C2F200031B781A4642F676
:10479800F863C2F20103197842F64073C2F20103CA
:1047A800995440F23F13C2F200031B78012B48D9F9
:1047B80040F23F13C2F200031B78A3F1020242F653
:1047C8004073C2F201039B5CDBB2652B2BD140F234
:1047D8003F13C2F200031B7803F1FF3242F6407325
:1047E800C2F201039B5CDBB26E2B1CD140F23F137B
:1047F800C2F200031B781A4642F64073C2F2010364
:104808009B5CDBB2642B0ED140F23C13C2F2000376
:104818004FF001021A7040F23F13C2F200034FF04A
:1048280000021A7029E040F23F13C2F200031B781D
:1048380003F10103DAB240F23F13C2F200031A7027
:104848001BE040F23F13C2F200031B7803F101039F
:10485800DAB240F23F13C2F200031A700DE040F2E0
:104868003C13C2F200034FF000021A7040F23F13EB
:10487800C2F200034FF000021A7080BD80B500AF8D
:104888004FF4A050C4F2010040F225510AF09AFA00
:104898000346002B3ED04FF4A053C4F201039B887B
:1048A8009BB2DAB242F6FA63C2F201031A7040F21E
:1048B8003E13C2F200031B78312B1DD840F23E1381
:1048C800C2F200031B781A4642F6FA63C2F20103E9
:1048D800197842F60873C2F20103995440F23E1364
:1048E800C2F200031B7803F10103DAB240F23E136F
:1048F800C2F200031A700DE040F23D13C2F2000349
:104908004FF000021A7040F23E13C2F200034FF05B
:1049180000021A7080BD00BF80B582B000AF786019
:10492800396014E000BF7B681B889BB203F040032A
:10493800002BF8D03B681B78DBB2786819460AF080
:1049480013F83B681B783B6803F101033B603B6845
:104958001B78DBB2002BE5D107F10807BD4680BD07
:1049680080B489B000AFF860B9607A60FB68FB6119
:10497800BB68DBB2BB600BE0BB68DAB2FB691A70DC
:10498800FB6903F10103FB617B6803F1FF337B6083
:10499800FB6903F00403002B02D07B68002BEBD1EA
:1049A8007B68002B2BD0BA6813464FEA03239B1869
:1049B8004FEA03429B187B61FB69BB610AE0BB6954
:1049C8007A691A607B68A3F104037B60BB6903F111
:1049D8000403BB617B68032BF1D8BB69FB610BE067
:1049E800BB68DAB2FB691A707B6803F1FF337B603E
:1049F800FB6903F10103FB617B68002BF0D1FB68C5
:104A0800184607F12407BD4680BC704780B48BB0B8
:104A180000AFF860B9607A60FB687B61FB687B6215
:104A2800BB683B627B6803F00303022B10D0032BA7
:104A380002D0012B18D023E03B6A1A787B6A1A70DF
:104A48007B6A03F101037B623B6A03F101033B626A
:104A58003B6A1A787B6A1A707B6A03F101037B62EE
:104A68003B6A03F101033B623B6A1A787B6A1A705E
:104A78007B6A03F101037B623B6A03F101033B623A
:104A88007B6AFB613B6ABB617B684FEA93037B608F
:104A98000BE0BB691A68FB691A60FB6903F1040340
:104AA800FB61BB6903F10403BB617B68002B0CBF8E
:104AB80000230123DBB27A6802F1FF327A60002B0F
:104AC800E7D17B69184607F12C07BD4680BC7047C3
:104AD80080B483B000AF7860396003E07B6803F18D
:104AE80001037B607B681B78002B05D07B681B78F3
:104AF8001A463B689A42F1D17B681B781A463B6894
:104B08009A4201D17B6801E04FF00003184607F193
:104B18000C07BD4680BC704780B485B000AF786094
:104B280039603B68FB607B68BB6000BFFB681A7834
:104B3800BB681A70BB681B78002B0CBF00230123CD
:104B4800DBB2BA6802F10102BA60FA6802F1010246
:104B5800FA60002BEAD17B68184607F11407BD46B6
:104B680080BC704780B487B000AFF860B9607A60E5
:104B7800BB687B61FB683B6100BF7B68002B0CBF97
:104B880000230123DBB27A6802F1FF327A60002B3E
:104B980014D07B691A783B691A703B691B78002B23
:104BA8000CBF00230123DBB23A6902F101023A612A
:104BB8007A6902F101027A61002BDED1FB6818469E
:104BC80007F11C07BD4680BC704700BF80B485B0A4
:104BD80000AF78604FF00003FB6003E0FB6803F16F
:104BE8000103FB60FB687A68D3181B78002BF5D1AA
:104BF800FB68184607F11407BD4680BC704700BF24
:104C080080B483B000AF7860396007E07B6803F157
:104C180001037B603B6803F101033B607B681B7801
:104C2800002B05D07B681A783B681B789A42EDD038
:104C38007B681B781A463B681B78D31A184607F11D
:104C48000C07BD4680BC704780B487B000AFF860E1
:104C5800B9607A604FF000037B6118E07B69FA68FD
:104C6800D3181A787B69B968CB181B789A420AD08E
:104C78007B69FA68D3181B781A467B69B968CB1820
:104C88001B78D31A09E07B6903F101037B617A6918
:104C98007B689A42E2D34FF00003184607F11C07DD
:104CA800BD4680BC704700BF80B483B000AF786059
:104CB800396003E07B6803F101037B607B681B7844
:104CC800002BF7D100BF3B681A787B681A707B68A5
:104CD8001B78002B0CBF00230123DBB27A6802F19A
:104CE80001027A603A6802F101023A60002BEAD1C7
:104CF8007B68184607F10C07BD4680BC704700BFAB
:104D080080B483B000AF87ED010AD7ED017AF5EEE4
:104D1800C07AF1EE10FA08DD97ED017ADFED0B7A33
:104D280077EE277AFDEEE77A07E097ED017ADFED77
:104D3800077A77EE677AFDEEE77A17EE903A18462B
:104D480007F10C07BD4680BC704700BF0000003F5C
:104D580080B58CB000AF4FF002004FF0010107F0B2
:104D6800DDF94FF030033B624FF0020387F824303F
:104D78004FF0000387F826304FF0030387F82530FB
:104D88004FF0010387F8273007F120034FF48060C4
:104D9800C4F20200194606F049FC4FF48060C4F2E0
:104DA80002004FF004014FF0020206F0CDFD4FF46F
:104DB8008060C4F202004FF005014FF0020206F0D5
:104DC800C3FD4FF002004FF0010107F025FA4FF044
:104DD800F903FB624FF0FF03BB62BB6ABB61FB6A6E
:104DE8009BB2BB824FF00003BB834FF00003FB82F2
:104DF80007F114034FF48060C4F20000194607F06D
:104E0800D9FD4FF060033B804FF001037B804FF0EA
:104E18000003BB604FF00003BB813B464FF480604A
:104E2800C4F20000194607F07BFF4FF48060C4F21B
:104E380000004FF0080108F0BFFA3B464FF48060CD
:104E4800C4F20000194607F0E9FF4FF40060C4F20D
:104E580000004FF0080108F0CBFA4FF48060C4F26C
:104E680000004FF0010107F03BFF07F13007BD4696
:104E780080BD00BF80B582B000AF4FF008004FF092
:104E8800010107F04BF94FF01E033B604FF00003A0
:104E98003B714FF002037B714FF00203FB713B46FD
:104EA8004FF44060C4F20200194606F0BFFB07F158
:104EB8000807BD4680BD00BF80B582B000AF4FF087
:104EC80010004FF0010107F029F94FF00F033B6084
:104ED8004FF001033B714FF00003BB714FF0030328
:104EE8007B714FF00003FB713B464FF48050C4F2D6
:104EF8000200194606F09AFB4FF48050C4F20200F3
:104F08004FF001014FF0000206F0E6FC4FF480502C
:104F1800C4F202004FF002014FF0000206F0DCFC80
:104F28004FF48050C4F202004FF004014FF0000229
:104F380006F0D2FC4FF48050C4F202004FF0080192
:104F48004FF0000206F0C8FC07F10807BD4680BD17
:104F580090B583B002AFFFF7FBFEFFF7ADFFFFF799
:104F680089FF45F21123C0F60003009340F2342074
:104F7800C0F601004FF032014FF001024FF0030379
:104F880004F0BEF802464DF2FC03C2F201031A60B7
:104F98004DF2FC03C2F201031C6803F033F9034627
:104FA8004FF00002009220464FF000011A464FF0E1
:104FB800000304F0DDF807F10407BD4690BD00BF0B
:104FC80080B582B000AF786039607B68002B23D150
:104FD8004FF48050C4F202004FF001014FF000027C
:104FE80006F07AFC4FF48050C4F202004FF0020140
:104FF8004FF0000206F070FC4FF48060C4F200002D
:105008004FF0000108F028F940F24013C2F2000303
:105018004FF000021A7060E07B68012B2DD100F080
:1050280019FA0346012B28D000F014FA0346032B83
:1050380023D04FF48050C4F202004FF001014FF02A
:10504800000206F049FC4FF48050C4F202004FF011
:1050580002014FF0010206F03FFC4FF48060C4F2F9
:1050680000004FF0FF0108F0F7F840F24013C2F2D9
:1050780000034FF001021A702FE07B68022B2CD13D
:1050880000F0E8F90346022B27D000F0E3F90346C5
:10509800032B22D04FF48050C4F202004FF00101DC
:1050A8004FF0010206F018FC4FF48050C4F20200E1
:1050B8004FF002014FF0000206F00EFC4FF4806042
:1050C800C4F200004FF0FF0108F0C6F840F24013A8
:1050D800C2F200034FF002021A7007F10807BD463A
:1050E80080BD00BF80B582B000AF786039607B6852
:1050F800002B23D14FF48050C4F202004FF004017A
:105108004FF0000206F0E8FB4FF48050C4F20200B2
:105118004FF008014FF0000206F0DEFB4FF480600C
:10512800C4F200004FF0000108F0A4F840F2411367
:10513800C2F200034FF000021A7060E07B68012B96
:105148002DD100F0BFF90346012B28D000F0BAF9A1
:105158000346032B23D04FF48050C4F202004FF0D3
:1051680004014FF0000206F0B7FB4FF48050C4F280
:1051780002004FF008014FF0010206F0ADFB4FF4BA
:105188008060C4F200004FF0FF0108F073F840F2AD
:105198004113C2F200034FF001021A702FE07B683E
:1051A800022B2CD100F08EF90346022B27D000F0F9
:1051B80089F90346032B22D04FF48050C4F2020031
:1051C8004FF004014FF0010206F086FB4FF48050C7
:1051D800C4F202004FF008014FF0000206F07CFB19
:1051E8004FF48060C4F200004FF0960108F042F8D6
:1051F80040F24113C2F200034FF002021A7007F1A5
:105208000807BD4680BD00BF80B500AF40F240131F
:10521800C2F200031B78012B04D0022B41D0002BD3
:105228007FD07DE040F24413C2F200031B6803F113
:10523800010240F24413C2F200031A6000F00AF9B6
:105248000346012B04D000F005F90346032B0CD1CB
:105258004FF000004FF00001FFF7B2FE40F240139C
:10526800C2F200034FF000021A7040F24413C2F277
:1052780000031B68132B56DD4FF000004FF00001B0
:10528800FFF79EFE40F24013C2F200034FF0000207
:105298001A7040F24413C2F200034FF000021A6081
:1052A80041E040F24813C2F200031B6803F1010217
:1052B80040F24813C2F200031A6000F0CBF803462C
:1052C800022B04D000F0C6F80346032B0CD14FF094
:1052D80000004FF00001FFF773FE40F24013C2F2E6
:1052E80000034FF000021A7040F24813C2F20003A4
:1052F8001B68132B19DD4FF000004FF00001FFF77A
:105308005FFE40F24013C2F200034FF000021A7031
:1053180040F24813C2F200034FF000021A6004E0A2
:1053280004E000BF02E000BF00E000BF40F241130C
:10533800C2F200031B78012B05D0022B42D0002BB0
:1053480000F081807DE040F24C13C2F200031B683C
:1053580003F1010240F24C13C2F200031A6000F09C
:10536800B1F80346012B04D000F0ACF80346032B38
:105378000CD14FF000004FF00001FFF7B3FE40F2F0
:105388004113C2F200034FF000021A7040F24C13AE
:10539800C2F200031B68132B57DD4FF000004FF0DB
:1053A8000001FFF79FFE40F24113C2F200034FF0E5
:1053B80000021A7040F24C13C2F200034FF00002D0
:1053C8001A6042E040F25013C2F200031B6803F176
:1053D800010240F25013C2F200031A6000F072F8A2
:1053E8000346022B04D000F06DF80346032B0CD1C2
:1053F8004FF000004FF00001FFF774FE40F2411338
:10540800C2F200034FF000021A7040F25013C2F2C9
:1054180000031B68132B1ADD4FF000004FF000014A
:10542800FFF760FE40F24113C2F200034FF00002A2
:105438001A7040F25013C2F200034FF000021A60D3
:1054480005E000BF04E000BF02E000BF00E000BFCD
:1054580080BD00BF80B500AF4FF44060C4F20200C9
:105468004FF0020106F0C4F90346002B0CBF0023DD
:105478000123DBB21A4640F25813C2F200031A6045
:105488004FF44060C4F202004FF0040106F0B0F996
:105498000346002B02D04FF0020201E04FF0000259
:1054A80040F25813C2F200031B681A4340F2581323
:1054B800C2F200031A6040F25813C2F200031B68DC
:1054C800184680BD80B500AF4FF44060C4F20200BA
:1054D8004FF0080106F08CF90346002B0CBF00239F
:1054E8000123DBB21A4640F25413C2F200031A60D9
:1054F8004FF44060C4F202004FF0100106F078F952
:105508000346002B02D04FF0020201E04FF00002E8
:1055180040F25413C2F200031B681A4340F25413BA
:10552800C2F200031A6040F25413C2F200031B686F
:10553800184680BD80B483B000AF78607B6842F6BF
:10554800E06202FB03F37B6000E000BF7B68002B96
:105558000CBF00230123DBB27A6802F1FF327A60C4
:10556800002BF2D107F10C07BD4680BC704700BF85
:1055780080B483B000AF78607A6813464FEA43037B
:105588009B184FEA83037B6000E000BF7B68002B19
:105598000CBF00230123DBB27A6802F1FF327A6084
:1055A800002BF2D107F10C07BD4680BC704700BF45
:1055B80080B500AF40F2A613C2F200031B78002B9F
:1055C8000AD14FF00000C4F202004FF010014FF072
:1055D800010206F081F934E040F2A613C2F200039A
:1055E8001B78012B0AD14FF00000C4F202004FF0E3
:1055F80020014FF0010206F06FF922E040F2A613F5
:10560800C2F200031B78022B0AD14FF40060C4F2E7
:1056180002004FF010014FF0010206F05DF910E0B2
:1056280040F2A613C2F200031B78032B09D14FF4F2
:105638000060C4F202004FF020014FF0010206F0B2
:105648004BF94FF00A00FFF793FF40F2A613C2F29E
:1056580000031B78002B0AD14FF00000C4F20200AF
:105668004FF010014FF0000206F036F934E040F236
:10567800A613C2F200031B78012B0AD14FF00000D9
:10568800C4F202004FF020014FF0000206F024F9A6
:1056980022E040F2A613C2F200031B78022B0AD1C3
:1056A8004FF40060C4F202004FF010014FF0000206
:1056B80006F012F910E040F2A613C2F200031B78BC
:1056C800032B09D14FF40060C4F202004FF020010F
:1056D8004FF0000206F000F980BD00BF80B500AFB2
:1056E800FFF766FF40F2A613C2F200031B7803F12E
:1056F8000103DAB240F2A613C2F200031A7040F2B4
:10570800A613C2F200031B7803F00303DAB240F2D7
:10571800A613C2F200031A7080BD00BF80B500AFA7
:105728004FF001004FF0010106F0F8FC4FF00200C5
:105738004FF0010106F0F2FC4FF004004FF00101B8
:1057480006F0ECFC4FF002004FF0010106F064FD9A
:1057580080BD00BF90B583B002AFFFF7DFFF00F058
:1057680031F800F0A7F945F2E563C0F600030093AD
:1057780040F25820C0F601004FF01E014FF0010220
:105788004FF0010303F0BCFC024640F27C13C2F266
:1057980000031A6040F27C13C2F200031C6802F096
:1057A80031FD03464FF00002009220464FF0000101
:1057B8001A464FF0000303F0DBFC07F10407BD466F
:1057C80090BD00BF80B584B000AF4FF0C0037B60D0
:1057D8004FF002033B724FF000037B724FF002035D
:1057E800FB7207F104034FF00000C4F202001946EF
:1057F80005F01CFF4FF003037B604FF002033B7280
:105808004FF000037B724FF00203FB7207F10403B1
:105818004FF48060C4F20200194605F007FF4FF00C
:105828000000C4F202004FF006014FF0020206F039
:105838008BF84FF00000C4F202004FF007014FF060
:10584800020206F081F84FF48060C4F202004FF0C3
:1058580000014FF0020206F077F84FF48060C4F2BE
:1058680002004FF001014FF0020206F06DF84FF40C
:105878008060C4F200004FF053014FF0010207F0BE
:1058880031F94FF01D033B734FF003037B734FF067
:105898000303BB734FF00103FB7307F10C031846B6
:1058A80004F000FA4DF20013C2F201034FF00002B7
:1058B8001A804DF20013C2F201034FF000025A8021
:1058C8004DF20013C2F201034FF001029A804DF22B
:1058D8000013C2F201034FF00002DA804DF2001308
:1058E800C2F201034FF000021A814FF48060C4F243
:1058F80000004DF20011C2F2010107F0FDFF4DF268
:105908000013C2F201034FF004021A804DF2001393
:10591800C2F201034FF000025A804DF20013C2F2A6
:1059280001034FF001029A804DF20013C2F2010305
:105938004FF00002DA804DF20013C2F201034FF07B
:1059480000021A814FF48060C4F200004DF2001189
:10595800C2F2010107F0D0FF4DF20013C2F20103B9
:105968004FF008021A804DF20013C2F201034FF003
:1059780000025A804DF20013C2F201034FF00102F7
:105988009A804DF20013C2F201034FF00002DA8050
:105998004DF20013C2F201034FF000021A814FF4D6
:1059A8008060C4F200004DF20011C2F2010107F05C
:1059B800A3FF4DF20013C2F201034FF00C021A804C
:1059C8004DF20013C2F201034FF000025A804DF26B
:1059D8000013C2F201034FF001029A804DF2001346
:1059E800C2F201034FF00002DA804DF20013C2F256
:1059F80001034FF000021A814FF48060C4F20000E6
:105A08004DF20011C2F2010107F076FF4FF48060F9
:105A1800C4F200004FF0010107F062F94FF4806012
:105A2800C4F200004FF0020108F028FA4FF4806039
:105A3800C4F200004FF0040108F020FA4FF480602F
:105A4800C4F200004FF0080108F018FA4FF4806023
:105A5800C4F200004FF0100108F010FA4FF4806013
:105A6800C4F200004FF002014FF0010208F072F991
:105A78004FF48060C4F200004FF004014FF00102BF
:105A880008F068F94FF48060C4F200004FF0080194
:105A98004FF0010208F05EF94FF48060C4F2000094
:105AA8004FF010014FF0010208F054F907F1100708
:105AB800BD4680BD80B582B000AF4FF030033B607B
:105AC8004FF001033B714FF00003BB714FF003032C
